:020000040C00EE
:100000000008002001020008F71400080715000886
:100010001715000827150008371500080000000014
:10002000000000000000000000000000471500086C
:100030005715000800000000671500087715000834
:100040008715000897150008A7150008B7150008C0
:10005000C7150008D7150008E7150008F7150008B0
:10006000071600080000000000000000000000006B
:1000700017160008000000002716000837160008B1
:10008000471600085716000867160008771600087C
:100090008716000897160008A7160008B71600086C
:1000A000C7160008D7160008E7160008F71600085C
:1000B0000717000817170008271700083717000848
:1000C0004717000857170008671700087717000838
:1000D0008717000897170008A7170008B717000828
:1000E000C7170008D7170008E7170008F717000818
:1000F0000718000817180008271800083718000804
:1001000047180008551800086318000871180008FF
:100110007F1800088D1800089B180008A91800080F
:10012000B7180008C5180008D3180008E11800081F
:10013000EF180008FD1800080B190008191900082D
:10014000271900083519000843190008511900083B
:100150005F1900086D1900087B190008891900084B
:10016000000000000000000000000000000000008F
:1001700097190008A5190008B3190008C11900084B
:10018000CF190008DD190008EB190008F91900085B
:10019000071A0008151A0008231A0008311A000867
:1001A0003F1A00084D1A00085B1A0008691A000877
:1001B000771A0008851A0008931A0008A11A000887
:1001C000AF1A0008BD1A0008CB1A0008D91A000897
:1001D000E71A0008F51A0008031B000800000000D9
:1001E000111B00081F1B00082D1B00083B1B0008EB
:1001F000491B000800000000571B00080000000019
:10020000DFF80CD0034880470348804700F006B869
:1002100000080020211D00081D44000819481A4943
:100220001A4A002A00F00D804FEA920203680B6020
:10023000013A00F0068000F1040001F10401FFF72B
:10024000F5BF13481349002900F00C804FEA9101D3
:100250004FF000020260013900F0048000F1040058
:10026000FFF7F8BF0C480D4908600D4880470D485E
:100270008047DFF834D04FF000004FF00001DFF886
:100280002CF00000D0CD000CA00E00204013000088
:1002900000080020940600000000000808ED00E0BF
:1002A000BD1D0008855C000800080020B50200089C
:1002B00000BF704780B584B000AF4FF00003FB7300
:1002C00004F094F84FF032004FF0000141F21D129B
:1002D000C0F600024FF0000303F09AFA024640F61F
:1002E0008C23C2F200031A604FF47A604FF00001D1
:1002F00041F25932C0F600024FF0000303F088FAD1
:10030000024640F67C03C2F200031A6040F6141362
:10031000C2F2000340F2DF721A6040F61413C2F218
:1003200000034FF008029A7241F6A403C2F20003E0
:100330001A7840F61413C2F20003DA7241F6A403ED
:10034000C2F200035A7840F61413C2F200031A7383
:1003500041F6A403C2F200039A7840F61413C2F2E5
:1003600000035A7341F6A403C2F20003DA7840F6A0
:100370001413C2F200039A7341F6A403C2F20003FD
:100380001A7940F61413C2F20003DA7341F6A4039B
:10039000C2F200035A7940F61413C2F200031A7431
:1003A00041F6A403C2F200039A7940F61413C2F294
:1003B00000035A7441F6A403C2F20003DA7940F64E
:1003C0001413C2F200039A7440F61413C2F200032D
:1003D0004FF000021A7240F61413C2F200034FF0FD
:1003E0000102DA7440F61413C2F200034FF0010266
:1003F0001A7540F61413C2F200034FF000025A605F
:1004000040F61413C2F200034FF000021A724CF6C9
:10041000E830C0F6000040F61411C2F200014FF0BF
:10042000010204F047FEB8604CF6E830C0F6000068
:100430004FF001014FF0080241F6A403C2F200039D
:1004400005F02AF84CF6D033C0F600035B685A6A10
:100450004CF6D033C0F600035B7822FA03F3DBB22C
:1004600003F00103FB714CF6C833C0F600035A6871
:100470004CF6C833C0F600035B784FF0010101FA77
:1004800003F353604CF6D833C0F600035A684CF6B9
:10049000D833C0F600035B784FF0010101FA03F393
:1004A00053604CF6B820C0F6000000F075FFFEE780
:1004B0002DE9F04389B008AF4CF6E830C0F60000F3
:1004C0004FF002014FF0010205F096F80346012BB0
:1004D00040F04C814CF6E830C0F600004FF00201CD
:1004E0004FF0010205F004F940F61303C2F20003D5
:1004F0001B781A4613464FEA43039B184FEAC3037F
:1005000040F68402C2F200029B184CF6E830C0F6B6
:10051000000019464FF0020204F0BCFE40F613033F
:10052000C2F200031B78194640F68402C2F20002B0
:100530000B464FEA43035B184FEAC303D31803F19A
:100540000A03DB780C2B00F0118140F61303C2F292
:1005500000031B78194640F68402C2F200020B46E3
:100560004FEA43035B184FEAC303D31803F10903AF
:10057000DB78412B16D140F61303C2F200031B783F
:10058000194640F68402C2F200020B464FEA4303CA
:100590005B184FEAC303D31803F10903DB78012B7F
:1005A00000F0E48040F61303C2F200031B78194602
:1005B00040F68402C2F200020B464FEA43035B1886
:1005C0004FEAC303D3181D6840F61303C2F20003B9
:1005D0001B78194640F68402C2F200020B464FEA2D
:1005E00043035B184FEAC303D31803F10803DB7816
:1005F0001C4640F61303C2F200031B78194640F66E
:100600008402C2F200020B464FEA43035B184FEA32
:10061000C303D31803F10903DB78994640F61303AB
:10062000C2F200031B78194640F68402C2F20002AF
:100630000B464FEA43035B184FEAC303D31803F199
:100640000A03DB78984640F61303C2F200031B78D6
:10065000194640F68402C2F200020B464FEA4303F9
:100660005B184FEAC303D31803F10B03DB789C46F6
:1006700040F61303C2F200031B78194640F68402C9
:10068000C2F200020B464FEA43035B184FEAC30372
:10069000D31803F10C03DB789E4640F61303C2F235
:1006A00000031B78194640F68402C2F200020B4692
:1006B0004FEA43035B184FEAC303D31803F10D035A
:1006C000DB781E4640F61303C2F200031B7819467E
:1006D00040F68402C2F200020B464FEA43035B1865
:1006E0004FEAC303D31803F10E03DB78184640F634
:1006F0001303C2F200031B78194640F68402C2F2CB
:1007000000020B464FEA43035B184FEAC303D318BA
:1007100003F10F03DB78CDF80090CDF80480CDF81D
:1007200008C0CDF80CE004960590069340F66410DE
:10073000C2F200004CF6C421C0F600012A4623464E
:1007400005F0AEFB40F66410C2F2000005F0D0FBED
:10075000034603F101034CF69030C0F6000040F66A
:100760006411C2F200011A4602F0B6FC4CF6E83001
:10077000C0F600004FF0200104F06EFF0346012B8D
:100780000ED14CF6E830C0F600004FF0200104F026
:10079000E5FF40F61103C2F200034FF002021A70A7
:1007A00007F10407BD46BDE8F08300BF000000006C
:1007B00080B582B000AF4FF000024FF00003C7E9F0
:1007C00000230DE0D7E900014FF000024FF00003D5
:1007D000C3F6F07305F01CF802460B46C7E9002388
:1007E000D7E9000106A3D3E9002305F023FA034665
:1007F000002BE7D107F10807BD4680BDAFF30080AD
:10080000000000000088B34080B586B000AF03460A
:10081000FB714FF00103FB754FF00003BB7540F611
:100820001303C2F200031B781A4613464FEA430330
:100830009B184FEAC30303F1080240F68403C2F297
:100840000003D31803F1030207F10C031068516889
:1008500003C340F61103C2F200031B78022B04D13C
:100860004FF00203FB75FB7DF2E240F61303C2F288
:1008700000031B78194640F68402C2F200020B46C0
:100880004FEA43035B184FEAC303D3181B689AB2BD
:1008900040F68823C2F200031A8040F68823C2F291
:1008A00000031B88DBB203F11803BB75B97D40F66A
:1008B0008823C2F200031A8840F68813C2F20003AC
:1008C0004FEAC1115B185A803A7B40F62C13C2F2F2
:1008D00000031A707B7BA3F14003DAB240F6821367
:1008E000C2F200031A70BA7B40F68003C2F2000322
:1008F0001A7040F68213C2F200031B78012B40F0FD
:100900007A8140F68003C2F200031B78402B00F28C
:10091000628101A252F823F01D0A0008D70B0008DB
:10092000D70B0008D70B0008D70B0008B90A00083E
:10093000D70B0008D70B0008D70B0008D70B00080F
:10094000D70B0008D70B00081B0B0008530B00083F
:10095000D70B0008D70B0008D70B0008D70B0008EF
:10096000D70B0008D70B0008D70B0008D70B0008DF
:10097000D70B0008D70B0008D70B0008D70B0008CF
:10098000D70B0008D70B0008D90A0008D70B0008BE
:10099000D70B0008A10B0008510A0008D70B00086C
:1009A000D70B0008D70B0008D70B0008D70B00089F
:1009B000D70B0008D70B0008D70B0008D70B00088F
:1009C000D70B0008D70B0008D70B0008D70B00087F
:1009D000D70B00086D0B0008D70B0008D70B0008D9
:1009E000D70B0008D70B0008D70B0008D70B00085F
:1009F000D70B0008D70B0008D70B0008D70B00084F
:100A0000D70B0008D70B0008D70B0008D70B00083E
:100A1000D70B0008D70B0008850A0008B97DFB7BBF
:100A20004FEA03623B7C4FEA03431A437B7C4FEA65
:100A300003231A43BB7C13431A4640F68813C2F2C1
:100A400000034FEAC1115B1803F104031A60FEE1D1
:100A5000B97DFB7B4FEA03623B7C4FEA03431A43B9
:100A60007B7C4FEA03231A43BB7C13431A4640F6B0
:100A70008813C2F200034FEAC1115B1803F10803A7
:100A80001A60E4E1B97DFB7B4FEA03623B7C4FEAED
:100A900003431A437B7C4FEA03231A43BB7C134373
:100AA0001A4640F68813C2F200034FEAC1115B18E0
:100AB00003F10C031A60CAE1B97DFB7BA3F12803A3
:100AC000DAB240F68813C2F200034FEAC1115B1894
:100AD00003F148035A71BAE1BB7D4FEAC31303F136
:100AE000100240F68813C2F20003D31803F1040188
:100AF000FB7B1A4613464FEA83039B184FEA4303D6
:100B000041F2A072C2F200029A180B4610685168B6
:100B10001860596012891A8199E1BA7DFB7B4FEA0E
:100B200003213B7CCB18002B01DA03F103034FEACE
:100B3000A30307EE103AF8EEC77A40F68813C2F224
:100B400000034FEAC2129B1803F14803C3ED007A79
:100B50007DE1B97DFA7B40F68813C2F200034FEACB
:100B6000C1115B1803F148031A7170E1BA7DFB7B78
:100B700007EE903AB8EE677ADFEDB87A27EE277A7B
:100B8000DFEDB77AC7EE277A40F68813C2F200038A
:100B90004FEAC2129B1803F15003C3ED007A56E1ED
:100BA000B97DFB7B4FEA03223B7CD31807EE103A5A
:100BB000F8EEC77AFCEEE77A17EE903A9AB240F672
:100BC0008813C2F200034FEAC1115B1803F1480316
:100BD000DA8000BF3BE14CF69030C0F6000041F6F1
:100BE000BC01C2F200014FF0100202F075FA4FF0A2
:100BF0000103FB752BE140F68213C2F200031B7860
:100C0000092B31D140F68003C2F200031B78002B80
:100C10001AD1B97DFB7B4FEA03623B7C4FEA034369
:100C20001A437B7C4FEA03231A43BB7C13431A46C7
:100C300040F68813C2F200034FEAC1115B1803F1BA
:100C400010031A6000BF02E14CF69030C0F60000BD
:100C500041F6BC01C2F200014FF0100202F03CFA72
:100C60004FF00903FB75F2E040F62C13C2F20003CB
:100C70001B7803F01003002B2ED0FB79022B16D12A
:100C8000BB7D4FEAC31303F1500240F68813C2F252
:100C90000003D31803F1040207F10C0303F102036C
:100CA000104619464FF0060205F036F8CFE0BB7D3E
:100CB0004FEAC31303F1680240F68813C2F200033F
:100CC000D21807F10C0303F10203104619464FF046
:100CD000060205F021F8BAE040F62C13C2F2000338
:100CE0001B7803F02003002B00F0B180FB79022B6E
:100CF0005AD140F62C13C2F200031B78222B18D0D5
:100D0000232B2BD0212B3FD1BB7D4FEAC31303F103
:100D1000560240F68813C2F20003D31803F104020E
:100D200007F10C03104619464FF0080204F0F4FFD7
:100D30008DE0BB7D4FEAC31303F15E0240F68813DA
:100D4000C2F20003D31803F1040207F10C031046AA
:100D500019464FF0080204F0DFFF78E0BB7D4FEA50
:100D6000C31303F1660240F68813C2F20003D318DE
:100D700003F1040207F10C03104619464FF0080274
:100D800004F0CAFF00BF62E04CF69030C0F60000ED
:100D900041F6BC01C2F200014FF0100202F09CF9D2
:100DA0004FF00903FB7552E040F62C13C2F200032A
:100DB0001B78222B16D0232B27D0212B38D1BB7D9B
:100DC0004FEAC31303F16E0240F68813C2F2000328
:100DD000D21807F10C03104619464FF0080204F030
:100DE0009BFF34E0BB7D4FEAC31303F1760240F66C
:100DF0008813C2F20003D21807F10C0310461946FB
:100E00004FF0080204F088FF21E0BB7D4FEAC313D6
:100E100003F17E0240F68813C2F20003D21807F1F4
:100E20000C03104619464FF0080204F075FF0EE05F
:100E30004CF69030C0F6000041F6BC01C2F2000151
:100E40004FF0100202F048F94FF00903FB75FB7DEB
:100E5000184607F11807BD4680BD00BF0000C84214
:100E600000007F43B0B592B002AF02460B46FA7164
:100E7000BB71FB79012B06D0022B00F0C580002B43
:100E800000F0468137E1BA7940F68813C2F20003D8
:100E90004FEAC2129B185B881A46B97940F688134C
:100EA000C2F200034FEAC1115B1803F104031B688F
:100EB00007F10C0108464CF6FC21C0F6000104F0D5
:100EC000EFFF07F10C03184605F012F8034603F193
:100ED000010307F10C024CF69030C0F600001146F9
:100EE0001A4602F0F9F8FFF763FCBA7940F6881366
:100EF000C2F200034FEAC2129B185B881A46B97906
:100F000040F68813C2F200034FEAC1115B1803F1E7
:100F100008031B6807F10C0108464CF61831C0F6AF
:100F2000000104F0BDFF07F10C03184604F0E0FFD8
:100F3000034603F1010307F10C024CF69030C0F6B2
:100F4000000011461A4602F0C7F8FFF731FCBA79E3
:100F500040F68813C2F200034FEAC2129B185B8866
:100F60001A46B97940F68813C2F200034FEAC1115C
:100F70005B1803F110031B6807F10C0108464CF6DF
:100F80003431C0F6000104F08BFF07F10C03184662
:100F900004F0AEFF034603F1010307F10C024CF627
:100FA0009030C0F6000011461A4602F095F8FFF79F
:100FB000FFFBBB794FEAC31303F1500240F68813DD
:100FC000C2F20003D31803F1040307F10C02104628
:100FD0004CF65031C0F600011A4604F061FF07F1EB
:100FE0000C03184604F084FF034603F1010307F1E4
:100FF0000C024CF69030C0F6000011461A4602F082
:101000006BF8FFF7D5FB84E0BA7940F68813C2F29B
:1010100000034FEAC2129B1803F148031B681846ED
:1010200004F054FD04460D46BA7940F68813C2F226
:1010300000034FEAC2129B1803F148031B791A46BA
:1010400007F10C03009218464CF65C31C0F6000123
:1010500022462B4604F024FF07F10C03184604F047
:1010600047FF034603F1010307F10C024CF69030F1
:10107000C0F6000011461A4602F02EF8FFF798FB62
:10108000BA7940F68813C2F200034FEAC2129B18E5
:1010900003F150031B68184604F018FD04460D4682
:1010A000BA7940F68813C2F200034FEAC2129B18C5
:1010B00003F14803DB881A4607F10C030092184637
:1010C0004CF67431C0F6000122462B4604F0E8FECF
:1010D00007F10C03184604F00BFF034603F101036C
:1010E00007F10C024CF69030C0F6000011461A468B
:1010F00001F0F2FF0DE04CF69030C0F6000041F632
:10110000BC01C2F200014FF0100201F0E5FF00E067
:1011100000BF07F14007BD46B0BD00BF80B582B03B
:1011200000AF78604CF6D833C0F600035A684CF62E
:10113000D833C0F600035B784FF0011101FA03F3D6
:10114000536040F60103C2F200034FF001021A702F
:1011500040F61413C2F200034FF4FC621A6041F629
:101160009C03C2F200035A7840F61413C2F2000343
:101170001A7341F69C03C2F200039A7840F61413E6
:10118000C2F200035A734CF6E830C0F6000040F695
:101190001411C2F200014FF0010203F08BFF4CF674
:1011A000E830C0F600004FF001014FF0080241F6B0
:1011B0009C03C2F2000304F06FF94CF6E830C0F66D
:1011C00000004FF0010103F0CDFF40F68C23C2F286
:1011D00000031B68184602F045FC40F68C23C2F25F
:1011E00000031B68184602F085FC4FF064004FF0C6
:1011F000000141F21D12C0F600024FF0000302F0A0
:1012000007FB024640F68C23C2F200031A6007F186
:101210000807BD4680BD00BF80B584B000AFF88030
:1012200079713A71FB704FF00003BB7341F6A40370
:10123000C2F200037A795A7041F6A403C2F20003A5
:101240003A799A7040F61413C2F2000340F2DF724A
:101250001A6041F6A403C2F200035A7840F6141350
:10126000C2F200031A7341F6A403C2F200039A7893
:1012700040F61413C2F200035A734CF6E830C0F67D
:10128000000040F61411C2F200014FF0010203F019
:1012900011FF4CF6E830C0F600004FF001014FF0AE
:1012A000080241F6A403C2F2000304F0F5F84CF67C
:1012B000E830C0F600004FF0010103F053FFFB8857
:1012C00018464FF0000141F25932C0F600024FF0CB
:1012D000000302F09DFA024640F67C03C2F20003CE
:1012E0001A6040F60003C2F200034FF000021A70C9
:1012F00040F67C03C2F200031B68184602F058FB5C
:101300001CE040F61303C2F200031B78002B15D03B
:101310004FF00103BB7340F61303C2F200031B78C6
:1013200003F1FF33DAB240F61303C2F200031A707E
:101330003B791846FFF768FA0346FB7340F6000353
:10134000C2F200031B78002BDBD0FB7B184607F1B1
:101350001007BD4680BD00BF80B582B000AF786089
:1013600040F60003C2F200034FF001021A7040F68B
:101370007C03C2F200031B68184602F073FB40F6C0
:101380007C03C2F200031B68184602F0B3FB07F1AE
:101390000807BD4680BD00BF80B588B000AF78604B
:1013A000786804F0A5FD0346FB77FB7F07F1080290
:1013B000104679681A4604F0AFFC07F108034CF6B2
:1013C0009030C0F6000019464FF00A0201F084FE8A
:1013D00007F12007BD4680BD80B483B000AF13463F
:1013E0000246FA710A46BA717B71FB79002B02D171
:1013F0004FF0010378E0BB79012B56D1FB79202B0C
:1014000019D8FB79C3F12003DBB24FF0010202FAD5
:1014100003F31A46797940F68813C2F200034FEAC3
:10142000C1115B1803F104031B681340002B59D052
:101430004FF0010358E0FB79402B19D8FB79C3F139
:101440004003DBB24FF0010202FA03F31A46797946
:1014500040F68813C2F200034FEAC1115B1803F192
:1014600008031B681340002B3CD04FF001033BE006
:10147000FB79602B36D8FB79C3F16003DBB24FF008
:10148000010202FA03F31A46797940F68813C2F290
:1014900000034FEAC1115B1803F10C031B681340F2
:1014A000002B1FD04FF001031EE0BB79092B19D18F
:1014B000FB79C3F12003DBB24FF0010202FA03F320
:1014C0001A46797940F68813C2F200034FEAC11137
:1014D0005B1803F110031B681340002B02D04FF080
:1014E000010301E04FF00003184607F10C07BD4669
:1014F00080BC7047FEE7DFF8700600B581B080471A
:1015000001B000BDFEE7DFF8640600B581B080479A
:1015100001B000BDFEE7DFF8580600B581B0804796
:1015200001B000BDFEE7DFF84C0600B581B0804792
:1015300001B000BDFEE7DFF8400600B581B080478E
:1015400001B000BDFEE7DFF8340600B581B080478A
:1015500001B000BDFEE7DFF8280600B581B0804786
:1015600001B000BDFEE7DFF81C0600B581B0804782
:1015700001B000BDFEE7DFF8100600B581B080477E
:1015800001B000BDFEE7DFF8040600B581B080477A
:1015900001B000BDFEE7DFF8F80500B581B0804777
:1015A00001B000BDFEE7DFF8EC0500B581B0804773
:1015B00001B000BDFEE7DFF8E00500B581B080476F
:1015C00001B000BDFEE7DFF8D40500B581B080476B
:1015D00001B000BDFEE7DFF8C80500B581B0804767
:1015E00001B000BDFEE7DFF8BC0500B581B0804763
:1015F00001B000BDFEE7DFF8B00500B581B080475F
:1016000001B000BDFEE7DFF8A40500B581B080475A
:1016100001B000BDFEE7DFF8980500B581B0804756
:1016200001B000BDFEE7DFF88C0500B581B0804752
:1016300001B000BDFEE7DFF8800500B581B080474E
:1016400001B000BDFEE7DFF8740500B581B080474A
:1016500001B000BDFEE7DFF8680500B581B0804746
:1016600001B000BDFEE7DFF85C0500B581B0804742
:1016700001B000BDFEE7DFF8500500B581B080473E
:1016800001B000BDFEE7DFF8440500B581B080473A
:1016900001B000BDFEE7DFF8380500B581B0804736
:1016A00001B000BDFEE7DFF82C0500B581B0804732
:1016B00001B000BDFEE7DFF8200500B581B080472E
:1016C00001B000BDFEE7DFF8140500B581B080472A
:1016D00001B000BDFEE7DFF8080500B581B0804726
:1016E00001B000BDFEE7DFF8FC0400B581B0804723
:1016F00001B000BDFEE7DFF8F00400B581B080471F
:1017000001B000BDFEE7DFF8E40400B581B080471A
:1017100001B000BDFEE7DFF8D80400B581B0804716
:1017200001B000BDFEE7DFF8CC0400B581B0804712
:1017300001B000BDFEE7DFF8C00400B581B080470E
:1017400001B000BDFEE7DFF8B40400B581B080470A
:1017500001B000BDFEE7DFF8A80400B581B0804706
:1017600001B000BDFEE7DFF89C0400B581B0804702
:1017700001B000BDFEE7DFF8900400B581B08047FE
:1017800001B000BDFEE7DFF8840400B581B08047FA
:1017900001B000BDFEE7DFF8780400B581B08047F6
:1017A00001B000BDFEE7DFF86C0400B581B08047F2
:1017B00001B000BDFEE7DFF8600400B581B08047EE
:1017C00001B000BDFEE7DFF8540400B581B08047EA
:1017D00001B000BDFEE7DFF8480400B581B08047E6
:1017E00001B000BDFEE7DFF83C0400B581B08047E2
:1017F00001B000BDFEE7DFF8300400B581B08047DE
:1018000001B000BDFEE7DFF8240400B581B08047D9
:1018100001B000BDFEE7DFF8180400B581B08047D5
:1018200001B000BDFEE7DFF80C0400B581B08047D1
:1018300001B000BDFEE7DFF8000400B581B08047CD
:1018400001B000BDFEE7FD4800B581B0804701B0A2
:1018500000BDFEE7FA4800B581B0804701B000BD89
:10186000FEE7F84800B581B0804701B000BDFEE753
:10187000F54800B581B0804701B000BDFEE7F348F0
:1018800000B581B0804701B000BDFEE7F04800B56B
:1018900081B0804701B000BDFEE7EE4800B581B0E1
:1018A000804701B000BDFEE7EB4800B581B080473E
:1018B00001B000BDFEE7E94800B581B0804701B046
:1018C00000BDFEE7E64800B581B0804701B000BD2D
:1018D000FEE7E44800B581B0804701B000BDFEE7F7
:1018E000E14800B581B0804701B000BDFEE7DF48A8
:1018F00000B581B0804701B000BDFEE7DC4800B50F
:1019000081B0804701B000BDFEE7DA4800B581B084
:10191000804701B000BDFEE7D74800B581B08047E1
:1019200001B000BDFEE7D54800B581B0804701B0E9
:1019300000BDFEE7D24800B581B0804701B000BDD0
:10194000FEE7D04800B581B0804701B000BDFEE79A
:10195000CD4800B581B0804701B000BDFEE7CB485F
:1019600000B581B0804701B000BDFEE7C84800B5B2
:1019700081B0804701B000BDFEE7C64800B581B028
:10198000804701B000BDFEE7C34800B581B0804785
:1019900001B000BDFEE7C14800B581B0804701B08D
:1019A00000BDFEE7BE4800B581B0804701B000BD74
:1019B000FEE7BC4800B581B0804701B000BDFEE73E
:1019C000B94800B581B0804701B000BDFEE7B74817
:1019D00000B581B0804701B000BDFEE7B44800B556
:1019E00081B0804701B000BDFEE7B24800B581B0CC
:1019F000804701B000BDFEE7AF4800B581B0804729
:101A000001B000BDFEE7AD4800B581B0804701B030
:101A100000BDFEE7AA4800B581B0804701B000BD17
:101A2000FEE7A84800B581B0804701B000BDFEE7E1
:101A3000A54800B581B0804701B000BDFEE7A348CE
:101A400000B581B0804701B000BDFEE7A04800B5F9
:101A500081B0804701B000BDFEE79E4800B581B06F
:101A6000804701B000BDFEE79B4800B581B08047CC
:101A700001B000BDFEE7994800B581B0804701B0D4
:101A800000BDFEE7964800B581B0804701B000BDBB
:101A9000FEE7944800B581B0804701B000BDFEE785
:101AA000914800B581B0804701B000BDFEE78F4886
:101AB00000B581B0804701B000BDFEE78C4800B59D
:101AC00081B0804701B000BDFEE78A4800B581B013
:101AD000804701B000BDFEE7874800B581B0804770
:101AE00001B000BDFEE7854800B581B0804701B078
:101AF00000BDFEE7824800B581B0804701B000BD5F
:101B0000FEE7804800B581B0804701B000BDFEE728
:101B10007D4800B581B0804701B000BDFEE77B483D
:101B200000B581B0804701B000BDFEE7784800B540
:101B300081B0804701B000BDFEE7764800B581B0B6
:101B4000804701B000BDFEE7734800B581B0804713
:101B500001B000BDFEE7714800B581B0804701B01B
:101B600000BD4FF001007047F5140008051500088E
:101B7000151500082515000835150008451500083D
:101B8000551500086515000851370008851500082F
:101B900095150008A5150008B5150008C51500081D
:101BA000D5150008E5150008F5150008051600080C
:101BB00015160008251600083516000845160008F9
:101BC00055160008651600087516000885160008E9
:101BD00095160008A5160008B5160008C5160008D9
:101BE000D5160008E5160008F516000805170008C8
:101BF00015170008251700083517000845170008B5
:101C000055170008651700087517000885170008A4
:101C100095170008A5170008B5170008C517000894
:101C2000D5170008E5170008F51700080518000883
:101C30001518000825180008351800084518000870
:101C400053180008611800086F1800087D18000874
:101C50008B18000899180008A7180008B518000884
:101C6000C3180008D1180008DF180008ED18000894
:101C7000FB180008091900081719000825190008A1
:101C800033190008411900084F1900085D190008B0
:101C90006B190008791900088719000895190008C0
:101CA000B1040008B1190008BF190008CD190008D7
:101CB000DB190008E9190008F7190008051A0008DF
:101CC000131A0008211A00082F1A00083D1A0008EC
:101CD0004B1A0008591A0008671A0008751A0008FC
:101CE000831A0008911A00089F1A0008AD1A00080C
:101CF000BB1A0008C91A0008D71A0008E51A00081C
:101D0000F31A0008011B00080F1B00081D1B000828
:101D10002B1B0008391B0008471B0008551B000837
:101D200080B582B000AF4FF46D43CEF200034FF4A4
:101D30006D42CEF20002D2F8882042F47002C3F85D
:101D400088204FF46D43CEF200034FF46D42CEF283
:101D50000002526922F008025A614FF40043C5F2B2
:101D600000034FF40042C5F20002526822F0010263
:101D70005A604FF48053C5F6000303F5805303F116
:101D800014031B687B607B6823F00F037B607B6818
:101D900043F003037B604FF48053C5F600037A6879
:101DA00003F5805303F114031A6000F0ABF800F060
:101DB00005F807F10807BD4680BD00BF80B485B0B7
:101DC00000AF4FF48C43C5F20003DB68B3F5803FEE
:101DD00040F0898044F21073C5F200031B6803F0E1
:101DE0000403002B00F0888044F21073C5F2000356
:101DF0009B6803F070634FEA136303F10103FB6018
:101E000044F21073C5F200039B6803F4FE434FEAEB
:101E1000132303F10103BB6044F21073C5F2000306
:101E20009B6803F4FE034FEA134303F101037B6055
:101E300044F21073C5F20003DB6803F00103002BCA
:101E400028D04FF45853C0F26E13FA68B3FBF2F384
:101E5000BA6802FB03F33B603A687B68B2FBF3F2BB
:101E600041F6E803C2F200031A6041F6E803C2F249
:101E700000031A684FF48C43C5F20003DB68DBB241
:101E800003F10103B2FBF3F241F6E803C2F20003EF
:101E90001A6031E04FF4D853C0F2B703FA68B3FBCD
:101EA000F2F3BA6802FB03F33B603A687B68B2FB6B
:101EB000F3F241F6E803C2F200031A6041F6E803C8
:101EC000C2F200031A684FF48C43C5F20003DB68CA
:101ED000DBB203F10103B2FBF3F241F6E803C2F215
:101EE00000031A6008E041F6E803C2F200034FF471
:101EF0005852C0F26E121A6007F11407BD4680BC3A
:101F0000704700BF80B582B000AF02F00FFE0346FD
:101F1000002B00F0558244F21073C5F200035A689A
:101F20004FF00203C0F201031340002B0DD044F226
:101F30001073C5F2000344F21072C5F20002526839
:101F400022F4803222F002025A604FF48E43C5F22E
:101F500000035B6803F03003002B72D04FF48E4314
:101F6000C5F200034FF48E42C5F20002526822F01F
:101F7000F0025A604FF48E43C5F200034FF48E42D4
:101F8000C5F20002526842F400325A6044F2107303
:101F9000C5F2000344F21072C5F20002D26822F0CA
:101FA0000102DA6044F21073C5F2000344F21072C9
:101FB000C5F20002526822F400325A604EF2100359
:101FC000CEF2000344F6A332C0F24C025A604EF245
:101FD0001003CEF200034FF000029A604EF210039D
:101FE000CEF200034FF005021A6044F21073C5F2FE
:101FF00000031B6803F46073B3F5607F08D04EF2F2
:102000001003CEF200039A6840F2F3139A42ECD820
:102010004EF21003CEF200034EF21002CEF2000296
:10202000126822F001021A6044F21073C5F2000334
:102030001B6803F46073B3F5607F02D04FF00003B8
:10204000C0E144F21073C5F200031B6803F00403FF
:10205000002B40F0B5814FF48C43C5F20003DB68E0
:1020600003F48033002B0BD04FF48C43C5F20003F4
:102070004FF48C42C5F20002D26822F48032DA605A
:102080004FF46053C1F69C437B607A6849F68173D4
:10209000C1F25E63A3FB02134FEA535303F1FF3314
:1020A0003B6044F21073C5F2000344F21072C5F2B3
:1020B0000002526842F001025A6044F21073C5F205
:1020C000000344F21072C5F20002526842F010029E
:1020D0005A6044F21072C5F200023B684FEA0341B5
:1020E00044F60173C0F200130B43936044F2107383
:1020F000C5F2000344F21072C5F20002526842F0C9
:1021000040025A6044F21073C5F2000344F21072A8
:10211000C5F20002526822F010025A6044F21073B5
:10212000C5F2000344F21072C5F20002526842F494
:1021300080225A604EF21003CEF2000344F6A3321E
:10214000C0F24C025A604EF21003CEF200034FF080
:1021500000029A604EF21003CEF200034FF0050227
:102160001A6000BF44F21073C5F200031B6803F04D
:102170000403002B08D14EF21003CEF200039A683C
:1021800040F2F3139A42EDD84EF21003CEF2000360
:102190004EF21002CEF20002126822F001021A6022
:1021A00044F21073C5F200031B6803F00403002B14
:1021B0004ED044F21073C5F2000344F21072C5F21F
:1021C0000002526822F001025A604FF48C43C5F2BB
:1021D00000034FF000021A614FF48C43C5F2000374
:1021E0004FF000025A614FF48C43C5F200034FF0E8
:1021F00000021A624FF48C43C5F200034FF48C4284
:10220000C5F20002D26842F48032DA6044F2107300
:10221000C5F2000344F21072C5F20002526822F0C7
:1022200040025A604EF21003CEF2000340F24552D3
:102230005A604EF21003CEF200034FF000029A6093
:102240004EF21003CEF200034FF005021A6002E0D6
:102250004FF00003B6E04EF21003CEF200039B688D
:10226000632BF8D84EF21003CEF200034EF21002A8
:10227000CEF20002126822F001021A604FF460539D
:10228000C1F69C437B607B684FEA132245F2C7434B
:10229000C0F21E13A3FB02134FEA932303F1FF3393
:1022A0003B6044F21072C5F200023B684FEA034102
:1022B00044F60173C0F200130B4393604EF2100317
:1022C000CEF2000340F61B425A604EF21003CEF2EB
:1022D00000034FF000029A604EF21003CEF20003AA
:1022E0004FF005021A6000BF4EF21003CEF2000359
:1022F0009B68632BF8D84EF21003CEF200034EF227
:102300001002CEF20002126822F001021A604FF4AD
:102310006053C1F69C437B607B684FEAD3124EF258
:102320002F33C0F2BE03A3FB02134FEAD32303F102
:10233000FF333B6044F21072C5F200023B684FEA83
:10234000034144F60173C0F200130B4393604EF255
:102350001003CEF2000341F223325A604EF2100312
:10236000CEF200034FF000029A604EF21003CEF25C
:1023700000034FF005021A6000BF4EF21003CEF2C8
:1023800000039B68632BF8D84EF21003CEF20003D3
:102390004EF21002CEF20002126822F001021A6020
:1023A00044F21073C5F2000344F60172C0F2031246
:1023B0009A6044F26013C5F200034FF00502DA6040
:1023C0004FF00103184607F10807BD4680BD00BF66
:1023D00080B485B000AFF860B9607A604FF0FF3329
:1023E000184607F11407BD4680BC704780B485B01D
:1023F00000AFF860B9607A604FF0FF33184607F11C
:102400001407BD4680BC704780B485B000AFF8604B
:10241000B9607A604FF00003184607F11407BD4613
:1024200080BC704780B485B000AFF860B9607A6056
:102430004FF0FF33184607F11407BD4680BC7047C4
:1024400080B400AF4FF0FF331846BD4680BC7047E4
:1024500080B483B000AF786039603B68002B02D055
:102460004FF0FF3301E06FF00103184607F10C074E
:10247000BD4680BC704700BF80B483B000AF7860B9
:1024800039607A683B689A4202D14FF0FF3301E02D
:102490006FF00103184607F10C07BD4680BC70477A
:1024A00080B483B000AF78604FF0FF33184607F177
:1024B0000C07BD4680BC704780B487B000AF786021
:1024C0004DF62063C0F200037B6140F61C03C2F2AC
:1024D00000031B68002B14D140F61C03C2F200035A
:1024E00042F2E012C2F200021A6040F61C03C2F28D
:1024F00000031A687B69D21840F62003C2F2000379
:102500001A6040F61C03C2F200031B683B6140F6F0
:102510001C03C2F200031B681A467B68D31803F140
:10252000070323F00703FB6040F62003C2F2000319
:102530001B68FA689A4202D34FF0000306E040F6A7
:102540001C03C2F20003FA681A603B69184607F1DF
:102550001C07BD4680BC704780B483B000AF786074
:102560004FF0FF33184607F10C07BD4680BC70479B
:1025700080B483B000AF78604FF0FF33184607F1A6
:102580000C07BD4680BC704780B483B000AF786054
:1025900039604FF0FF33184607F10C07BD4680BC89
:1025A000704700BF80B400AF4FF0FF331846BD4600
:1025B00080BC704780B400AF4FF0FF331846BD4673
:1025C00080BC704780B483B000AF7860FEE700BF86
:1025D00080B400AFBD4680BC704700BF80B483B0FC
:1025E00000AF78604FF0FF33184607F10C07BD4687
:1025F00080BC704780B485B000AF78607B681B6892
:10260000FB60FB681B6C23F00202FB681A64FB682A
:10261000DB6843F00302FB68DA60FB681B6943F484
:102620000042FB681A61FB681A697B681B8D4FEAE0
:1026300083534FEA93531A43FB681A61FB685A6944
:102640007B6893F830304FEA032303F440717B68D2
:102650009B8D4FEA832303F4F84319437B685B8D1A
:102660004FEA03404FF00003C0F2FF3303400B4337
:102670001A43FB685A61FB685B6B43F48172FB6829
:102680005A63FB685A6B7B689B8B4FEA034303F4E6
:102690007C117B689B8B4FEA036303F070630B43F1
:1026A0001A43FB685A63FB689B6B43F4A062FB68A8
:1026B0009A63FB68DA6B7B685B7D4FEA430303F048
:1026C00002017B68DB8D4FEA032303F4F8530B43CD
:1026D000134343F00102FB68DA637B6893F824300C
:1026E000002B05D0FB68DB6B43F02002FB68DA634C
:1026F0007B6893F82530002B05D0FB68DB6B43F03B
:102700004002FB68DA637B6893F82630002B05D023
:10271000FB68DB6B43F08002FB68DA637B689B7FBE
:10272000002B0ED0FB68D3F808217B6893F820308B
:102730004FEA032303F47C531A43FB68C3F80821D0
:1027400005E0FB689B6C43F40052FB689A647B686D
:10275000DB7F002B0FD0FB68D3F80C217B6893F84C
:1027600021304FEA032303F47C53134343F0805298
:10277000FB68C3F80C21FB681A6C7B689B7D4FEAF1
:10278000032303F44073134343F00202FB681A640B
:1027900007F11407BD4680BC704700BF80B485B008
:1027A00000AF78607B685B687A68526851687A68C5
:1027B000127A4FF0010000FA02F20A435A607B6875
:1027C0001B7AFB60FB68032B10D87B685B687A6818
:1027D00052681169FA684FEAC20202F103024FF02F
:1027E000180000FA02F20A431A614FE0FB68032B5B
:1027F00017D9FB68072B14D8FB68A3F10403FB600F
:102800007B685B687A6852685169FA684FEAC2026D
:1028100002F103024FF0180000FA02F20A435A6173
:1028200034E0FB68072B17D9FB680B2B14D8FB6827
:10283000A3F10803FB607B685B687A685268916962
:10284000FA684FEAC20202F103024FF0180000FAE0
:1028500002F20A439A6119E0FB680B2B16D9FB6858
:102860000F2B13D8FB68A3F10C03FB607B685B683C
:102870007A685268D169FA684FEAC20202F103022B
:102880004FF0180000FA02F20A43DA6107F1140768
:10289000BD4680BC704700BF80B485B000AF786093
:1028A000D7ED017AF5EEC07AF1EE10FA06D5D7ED44
:1028B000017AF1EE677AC7ED037A01E07B68FB608D
:1028C000FB68184607F11407BD4680BC704700BF7F
:1028D00080B52DED028BAEB000AFF860B9607A60C4
:1028E0004FF00003C7F8B4304FF00003C7F8B03022
:1028F000FB68C7F8AC304FF00003C7F8A8304FF0C2
:102900000003C7F888304FF00003FB6742F6C65358
:10291000C7F8A830D7ED2B7AB8EE677AD7ED2A7AC8
:10292000F8EE677AC7EE277AC7ED1E7A97ED1E7A22
:10293000F7EE007AB4EEE77AF1EE10FA12DD4FF41A
:102940008063C7F8A4304FF0010387F88330D7F8CD
:10295000AC30FB67D7F8A830C7F8AC30FB6FC7F8CE
:10296000A83007E04FF0000387F883304FF480630E
:10297000C7F8A4304FF00003C7F884304FF00003CD
:10298000C7F890304FF00003C7F88C30D7F8AC3060
:102990003B66D7F8A8303B644FF001033B634FF030
:1029A00000033B62D7F8843003F10103C7F8843099
:1029B000D7F88C307B67D7F89030C7F88C30D7F8D1
:1029C000843003F00303C7F89030D7F88C304FEA17
:1029D000830307F1B801CB1853F8582CD7F890307F
:1029E0004FEA830307F1B801CB1843F8682CD7F8F6
:1029F0008C304FEA830307F1B802D31853F8782CD0
:102A0000D7F890304FEA830307F1B801CB1843F8A9
:102A1000582CD7F890304FEA830307F1B802D31847
:102A200053F8682CD7F890304FEA830307F1B801C8
:102A3000CB1853F8583CB2FBF3F2D7F890304FEA7A
:102A4000830307F1B801CB1843F8A82CD7F89030CE
:102A50004FEA830307F1B802D31853F8682CD7F86C
:102A600090304FEA830307F1B801CB1853F8583C74
:102A7000B2FBF3F103FB01F3D21AD7F890304FEA1F
:102A8000830307F1B801CB1843F8782CD7F88430CA
:102A9000012B05D17B697B634FF001037B624BE027
:102AA000D7F890304FEA830307F1B802D31853F8F0
:102AB000A82CD7F88C304FEA830307F1B801CB1864
:102AC00053F8883C03FB02F27B6F4FEA830307F164
:102AD000B801CB1853F8883CD218D7F890304FEA99
:102AE000830307F1B801CB1843F8882CD7F890304E
:102AF0004FEA830307F1B802D31853F8A82CD7F88C
:102B00008C304FEA830307F1B801CB1853F8983C97
:102B100003FB02F27B6F4FEA830307F1B801CB1886
:102B200053F8983CD218D7F890304FEA830307F156
:102B3000B801CB1843F8982CD7F890304FEA8303AC
:102B400007F1B802D31853F8982CD7F8A4309A425A
:102B500040F2DF80D7F88C304FEA830307F1B801E9
:102B6000CB1853F8883CC7F8A030D7F88C304FEA20
:102B7000830307F1B802D31853F8983CC7F898308C
:102B80007B6F4FEA830307F1B801CB1853F8983CE9
:102B9000D7F8A420D21AD7F88C304FEA830307F174
:102BA000B801CB1853F8983CB2FBF3F33B67D7F866
:102BB000903003F1FF334FEA830307F1B802D318D3
:102BC00053F8883C3A6F02FB03F2D7F89030A3F138
:102BD00002034FEA830307F1B801CB1853F8883C8E
:102BE000D318C7F89C30D7F8903003F1FF334FEA81
:102BF000830307F1B802D31853F8983C3A6F02FBED
:102C000003F27B6F4FEA830307F1B801CB1853F847
:102C1000983CD318C7F8943097F88330002B13D022
:102C2000D7F8A030FB67D7F89830C7F8A030FB6F13
:102C3000C7F89830D7F89C30FB67D7F89430C7F8BE
:102C40009C30FB6FC7F89430D7F89830002B03D036
:102C5000D7F8A030002B08D1D7F89C30C7F8B43093
:102C6000D7F89430C7F8B0304EE0D7F89430002B46
:102C700003D0D7F89C30002B08D1D7F8A030C7F884
:102C8000B430D7F89830C7F8B0303DE0D7ED287AA7
:102C9000B8EE677AD7ED267AF8EE677AC7EE277A2C
:102CA00097ED1E7A77EE677A17EE900AFFF7F4FD3C
:102CB00008EE100AD7ED277AB8EE677AD7ED257AB5
:102CC000F8EE677AC7EE277A97ED1E7A77EE677A85
:102CD00017EE900AFFF7E0FD07EE900AB4EEE78AE0
:102CE000F1EE10FA08DDD7F89C30C7F8B430D7F809
:102CF0009430C7F8B03007E0D7F8A030C7F8B43048
:102D0000D7F89830C7F8B0304FF00503C7F88830CF
:102D100032E0D7F890304FEA830307F1B802D318B6
:102D200053F8783C002B27D1D7F890304FEA830333
:102D300007F1B801CB1853F8883CC7F8B430D7F87E
:102D400090304FEA830307F1B802D31853F8983C48
:102D5000C7F8B03097F88330002B09D0D7F8B430DB
:102D6000FB67D7F8B030C7F8B430FB6FC7F8B030A6
:102D70004FF00503C7F88830D7F88830052B7FF46B
:102D800011AED7F8B42040F2FF339A4203D940F293
:102D9000FF33C7F8B4307B68D7F8B4201A60D7F88F
:102DA000B03003F1FF32BB681A6007F1B807BD46C7
:102DB000BDEC028B80BD00BF80B582B000AF4FF488
:102DC000006000F02FFF4FF000037B6021E041F630
:102DD000EC03C2F200037A6853F822301B7D012B0A
:102DE00009D141F6EC03C2F200037A6853F82230AD
:102DF0001846FFF7D3FC41F6EC03C2F200037A68F1
:102E000053F822301846FFF7F5FB7B6803F1010306
:102E10007B607B68002BDAD007F10807BD4680BDD8
:102E200080B483B000AF786007F10C07BD4680BC6A
:102E3000704700BF80B58AB000AFF860B960FA7122
:102E4000BB714FF000037B614FF000033B61FB68F7
:102E50001B683B624FF005037B623B6A9B6C03F08F
:102E60000103FB613B6A9B6C03F002034FEA5303CF
:102E7000BB61FA69BB691340012B5BD13B6A1B6CD8
:102E800023F002023B6A1A6407F1140207F11003EF
:102E9000B86811461A46FFF71BFD3B6A1B6923F40D
:102EA0007F7323F003033A6A13613B6A1A693B6933
:102EB0004FEA83534FEA93531A433B6A1A613B6AC2
:102EC0005B6923F07F7323F440333A6A53613B6AB2
:102ED0005A697B694FEA03414FF00003C0F2FF33A8
:102EE0000B401A433B6A5A613B6ADB6B23F00202D8
:102EF0003B6ADA633B6ADA6BBB794FEA430303F060
:102F000002031A433B6ADA633B6A1B6C23F4407288
:102F10003B6A1A643B6A1A6CFB794FEA032303F499
:102F20004073134343F002023B6A1A644FF00003FC
:102F30007B6202E04FF003037B627B6A184607F175
:102F40002807BD4680BD00BF80B487B000AFF860E1
:102F5000B9607A604FF000037B61FB681B683B61DE
:102F6000FB68DB7F002B1FD011E03B69D3F81C31DD
:102F70009AB2BB681A807B6803F1FF337B607B6980
:102F800003F101037B61BB6803F10203BB603B6992
:102F9000D3F8143103F008034FEAD303002B0CD10C
:102FA0007B68002BE1D108E03B695B6D9AB2BB689E
:102FB0001A807B6903F101037B617B69184607F185
:102FC0001C07BD4680BC704780B487B000AFF86076
:102FD000B9607A604FF000037B61FB681B683B615E
:102FE000FB68DB7F002B1FD011E03B69D3F81C315D
:102FF000DAB2BB681A707B6803F1FF337B607B69D0
:1030000003F101037B61BB6803F10103BB603B6912
:10301000D3F8143103F008034FEAD303002B0CD18B
:103020007B68002BE1D108E03B695B6DDAB2BB68DD
:103030001A707B6903F101037B617B69184607F114
:103040001C07BD4680BC704780B487B000AFF860F5
:10305000B9607A604FF000037B61FB681B683B61DD
:10306000FB689B7F002B1FD011E0BB681B881A46B2
:103070003B69C3F880217B6803F1FF337B607B6988
:1030800003F101037B61BB6803F10203BB603B6991
:10309000D3F8143103F480534FEA1333002B13D1C8
:1030A0007B68002BE1D10FE03B699B6B03F0800351
:1030B000002B09D1BB681B881A463B69C3F88020E6
:1030C0007B6903F101037B617B69184607F11C07EB
:1030D000BD4680BC704700BF80B487B000AFF860C9
:1030E000B9607A604FF000037B61FB681B683B614D
:1030F000FB689B7F002B1FD011E0BB681B781A4632
:103100003B69C3F880217B6803F1FF337B607B69F7
:1031100003F101037B61BB6803F10103BB603B6901
:10312000D3F8143103F480534FEA1333002B13D137
:103130007B68002BE1D10FE03B699B6B03F08003C0
:10314000002B09D1BB681B781A463B69C3F8802065
:103150007B6903F101037B617B69184607F11C075A
:10316000BD4680BC704700BF80B487B000AF7860B8
:103170000B46FB704FF001037B614FF000033B6196
:103180007B681B68FB60FB780F2B0BD8FB689B6C84
:103190003B61FB784FF0010202FA03F33A691340F6
:1031A0003B611FE0FB78122B0ED8FB68D3F814317B
:1031B0003B61FB78A3F110034FF0010202FA03F325
:1031C0003A6913403B610DE0FB68D3F814313B6171
:1031D000FB78A3F10B034FF0010202FA03F33A6903
:1031E00013403B613B69002B02D04FF002037B612F
:1031F0007B69184607F11C07BD4680BC704700BFBD
:1032000080B485B000AF78600B46FB707B681B68AC
:10321000FB60FB780F2B0AD8FB68DA6CFB784FF069
:10322000010101FA03F31A43FB68DA641FE0FB783B
:10323000122B0ED8FB68D3F81821FB78A3F11003EA
:103240004FF0010101FA03F31A43FB68C3F8182198
:103250000DE0FB68D3F81821FB78A3F10B034FF0C6
:10326000010101FA03F31A43FB68C3F8182107F1BF
:103270001407BD4680BC704780B400AF4FF46D4367
:10328000CEF20003DB6803F4E0634FEA1323184631
:10329000BD4680BC704700BF80B483B000AF03461A
:1032A0003960FB7197F90730002B10DA4FF46D434A
:1032B000CEF20003FA7902F00F02A2F104013A689B
:1032C000D2B24FEA8202D2B25B181A760DE04FF406
:1032D0006143CEF2000397F907103A68D2B24FEA81
:1032E0008202D2B25B1883F8002307F10C07BD46B7
:1032F00080BC704780B489B000AFF860B9607A6074
:10330000FB6803F00703FB61FB69C3F10703062BAE
:1033100028BF0623BB61FB6903F10603062B03D913
:10332000FB6903F1FF3301E04FF000037B61BB69F0
:103330004FF0010202FA03F303F1FF331A46BB68B0
:103340001A407B6902FA03F27B694FF0010101FA2E
:1033500003F303F1FF3319467B680B401343184610
:1033600007F12407BD4680BC704700BF80B582B01E
:1033700000AF78607B6803F1FF326FF07F439A42C1
:1033800002D94FF001031DE04EF21003CEF200030C
:103390007A6802F1FF325A604FF0FF304FF03F0180
:1033A000FFF77AFF4EF21003CEF200034FF0000257
:1033B0009A604EF21003CEF200034FF007021A603B
:1033C0004FF00003184607F10807BD4680BD00BF57
:1033D00080B487B000AF786040F69023C2F200035B
:1033E0007A684FEA42129B1803F108031B68FB60DE
:1033F00040F62403C2F200031B68002B0DD17B684A
:103400004FEA431240F69023C2F20003D21840F66E
:103410002403C2F200031A60DEE040F62403C2F285
:1034200000031B687B61FB683B61D1E07B699B68A3
:103430003A69D31A3B613B69002B80F29C807B691F
:10344000DB69002B2ED07B69DA697B684FEA431178
:1034500040F69023C2F20003CB1893617B69DA69CE
:1034600040F69023C2F2000379684FEA41115B18DD
:1034700003F11C031A6040F69023C2F200037A683D
:103480004FEA42129B1803F118037A691A607B68AD
:103490004FEA431240F69023C2F20003D2187B6930
:1034A000DA612AE040F62403C2F200031A6840F60B
:1034B0009023C2F2000379684FEA41115B1803F1CF
:1034C00018031A6040F62403C2F200031A687B68EE
:1034D0004FEA431140F69023C2F20003CB18D361A8
:1034E0007B684FEA431240F69023C2F20003D218E1
:1034F00040F62403C2F200031A6040F69023C2F2A1
:1035000000037A684FEA42129B1803F118031B6804
:103510009A683B69D21840F69023C2F2000379689A
:103520004FEA41115B1803F108031A6040F690233B
:10353000C2F200037A684FEA42129B1803F11803A3
:103540001A6840F69023C2F2000379684FEA4111ED
:103550005B1803F118031B68996840F69023C2F2C8
:10356000000378684FEA40101B1803F108031B683A
:10357000CB1A936030E03B69002B26DB7B699B69AB
:10358000002B22D140F69023C2F200037A684FEA62
:1035900042129B1803F11C037A691A607B684FEA98
:1035A000431240F69023C2F20003D2187B699A615D
:1035B0003A6940F69023C2F2000379684FEA41115C
:1035C0005B1803F108031A6006E07B699B697B6165
:1035D0007B69002B7FF42AAF07F11C07BD4680BC36
:1035E000704700BF80B485B000AF78607B684FEA59
:1035F000431240F69023C2F20003D318FB60FB682D
:10360000DB69002B0BD1FB689B69002B07D140F6CF
:103610002403C2F200034FF000021A6049E0FB6885
:10362000DB69002B1CD1FB689A6940F62403C2F2C7
:1036300000031A6040F62403C2F200031B684FF037
:103640000002DA61FB689B69FA6892699168FA681E
:1036500092688A189A60FB684FF000029A6128E02D
:10366000FB689B69002B09D1FB68DB694FF0000206
:103670009A61FB684FF00002DA611AE0FB68DB69CF
:10368000FA6892699A61FB689B69FA68D269DA61A3
:10369000FB689B69FA6892699168FA6892688A186F
:1036A0009A60FB684FF000029A61FB684FF00002DD
:1036B000DA6107F11407BD4680BC704780B582B05F
:1036C00000AF40F62403C2F200031B687B6031E0C8
:1036D0007B681B79002B0FD17B681B681846FFF7AE
:1036E00081FF7B684FF001025A717B681B697A6821
:1036F00052691046984717E07B681B79012B21D14E
:103700007B681B681846FFF76DFF7B68DA687B688B
:103710009A607B681B681846FFF75AFE7B681B6936
:103720007A6852691046984740F62403C2F20003B3
:103730001B687B607B68002B05D07B689B68002B37
:10374000C6D000E000BF07F10807BD4680BD00BF3E
:1037500080B582B000AF40F62403C2F200031B68BC
:103760007B6040F62C03C2F200031B6803F10102E8
:1037700040F62C03C2F200031A607B68002B10D0C5
:103780007B689B68012B06D97B689B6803F1FF323D
:103790007B689A6005E07B684FF000029A60FFF753
:1037A0008DFF07F10807BD4680BD00BF80B582B020
:1037B00000AF4FF000037B6040F62403C2F2000329
:1037C0004FF000021A6001F099F94DF2C040C0F2CA
:1037D0000100FFF7CBFD7860FFF74EFD034618466A
:1037E0004FF00A014FF00002FFF784FD03464FF04F
:1037F000FF301946FFF750FD40F62803C2F20003E0
:103800004FF000021A6007F10807BD4680BD00BFF7
:1038100080B489B000AFF8607A603B600B46FB7201
:103820004FF00003FB614FF00003BB614FF000035A
:103830007B61FB7A002B05D0FB7A012B02D04FF085
:1038400001037B61FB68002B02D14FF001037B6118
:10385000FB68002B02D14FF001037B617B68002BDA
:1038600002D14FF001037B617B69002B40F098800F
:103870004FF00003BB618FE040F62803C2F2000363
:103880001A68BB6922FA03F303F00103002B7FD10E
:10389000BB694FF0010202FA03F240F62803C2F2BC
:1038A00000031B681A4340F62803C2F200031A60A3
:1038B00040F69023C2F20003BA694FEA42129B1805
:1038C000BA691A6040F69023C2F20003BA694FEA5F
:1038D00042129B18FA7A1A7140F69023C2F2000342
:1038E000BA694FEA42129B184FF001025A71FB6805
:1038F00003F1010240F69023C2F20003B9694FEAD6
:1039000041115B1803F108031A6040F69023C2F2DC
:103910000003BA694FEA42129B1803F10C03FA68DC
:103920001A6040F69023C2F20003BA694FEA4212CD
:103930009B1803F110037A681A6040F69023C2F2D4
:103940000003BA694FEA42129B1803F114033A6864
:103950001A6040F69023C2F20003BA694FEA42129D
:103960009B1803F11C034FF000021A6040F69023ED
:10397000C2F20003BA694FEA42129B1803F118031E
:103980004FF000021A60BB6903F10103FB6107E01D
:10399000BB6903F10103BB61BB691F2B7FF66CAFF1
:1039A000FB69184607F12407BD4680BC704700BF7D
:1039B00080B584B000AF78604FF00003FB607B6897
:1039C000202B02D94FF00103FB6040F62803C2F21E
:1039D00000031A687B6803F1FF3322FA03F303F054
:1039E0000103002B02D14FF00103FB607B6803F160
:1039F000FF3240F69023C2F200034FEA42129B18B6
:103A000003F108031B68002B02D14FF00103FB6098
:103A1000FB68002B1FD17B6803F1FF3240F6902337
:103A2000C2F200034FEA42129B185B79002B12D0BE
:103A30007B6803F1FF3240F69023C2F200034FEAA5
:103A400042129B184FF000025A717B6803F1FF335A
:103A50001846FFF7BDFCFB68184607F11007BD4686
:103A600080BD00BF80B584B000AF78604FF0000328
:103A7000FB607B68202B02D94FF00103FB6040F60E
:103A80002803C2F200031A687B6803F1FF3322FAAD
:103A900003F303F00103002B02D14FF00103FB609D
:103AA000FB68002B1FD17B6803F1FF3240F69023A7
:103AB000C2F200034FEA42129B185B79012B12D02D
:103AC0007B6803F1FF331846FFF78CFD7B6803F139
:103AD000FF3240F69023C2F200034FEA42129B18D5
:103AE0004FF001025A71FB68184607F11007BD46F6
:103AF00080BD00BF80B584B000AF78604FF0000398
:103B0000FB607B68202B02D94FF00103FB6040F67D
:103B10002803C2F200031A687B6803F1FF3322FA1C
:103B200003F303F00103002B02D14FF00103FB600C
:103B3000FB68002B26D17B6803F1FF3240F690230F
:103B4000C2F200034FEA42129B185B79002B05D1A9
:103B50007B6803F1FF331846FFF744FD7B6803F1F0
:103B6000FF334FF0010202FA03F36FEA030240F65B
:103B70002803C2F200031B681A4040F62803C2F271
:103B800000031A60FB68184607F11007BD4680BDA8
:103B900080B400AF40F62C03C2F200031B68184645
:103BA000BD4680BC704700BF80B485B000AF786070
:103BB0007A684DF2C043C0F2010303FB02F3FB60DD
:103BC000FB68184607F11407BD4680BC704700BF6C
:103BD00080B487B000AF78604FF000037B614FF096
:103BE00000033B614FF48843C5F20003FB607B6830
:103BF0004FEA13737B61FB6803F1100319467A697E
:103C000013464FEA43039B184FEA8303CB183B61EB
:103C10007B6823F070423B691A6007F11C07BD46C0
:103C200080BC704780B487B000AF78604FF000036D
:103C30007B614FF000033B614FF48843C5F2000302
:103C4000FB607B684FEA13737B61FB6803F114032D
:103C500019467A6913464FEA43039B184FEA8303D8
:103C6000CB183B617B6823F070423B691A6007F117
:103C70001C07BD4680BC704780B483B000AF4FF4D2
:103C80008843C5F200037B604FF00003FB707B6844
:103C90001B68FB70FB78184607F10C07BD4680BC1B
:103CA000704700BF80B489B000AF78604FF00F0359
:103CB000FB614FF00003BB614FF000037B614FF0ED
:103CC00000033B614FF48843C5F20003FB607B684F
:103CD0004FEA1373BB61FB6803F10C031946BA6921
:103CE00013464FEA43039B184FEA8303CB187B61CB
:103CF0007B691A687B68134023F070433B613B6922
:103D0000002B03D04FF00103FB6102E04FF00003F2
:103D1000FB61FB69184607F12407BD4680BC70476C
:103D200080B483B000AF4FF48843C5F200037B60DA
:103D30007B689B6843F001027B689A6007F10C077F
:103D4000BD4680BC704700BF80B400AF4FF46D43E8
:103D5000CEF20003DB6803F4E0634FEA1323184656
:103D6000BD4680BC704700BF80B483B000AF03463F
:103D7000FB714FF46143CEF2000397F907204FEA3D
:103D80005212F97901F01F014FF0010000FA01F120
:103D900043F8221007F10C07BD4680BC704700BFF6
:103DA00080B483B000AF03463960FB7197F90730E8
:103DB000002B10DA4FF46D43CEF20003FA7902F0D3
:103DC0000F02A2F104013A68D2B24FEA8202D2B2E3
:103DD0005B181A760DE04FF46143CEF2000397F9B9
:103DE00007103A68D2B24FEA8202D2B25B1883F867
:103DF000002307F10C07BD4680BC704780B489B032
:103E000000AFF860B9607A60FB6803F00703FB61FC
:103E1000FB69C3F10703062B28BF0623BB61FB69BF
:103E200003F10603062B03D9FB6903F1FF3301E01D
:103E30004FF000037B61BB694FF0010202FA03F30C
:103E400003F1FF331A46BB681A407B6902FA03F29A
:103E50007B694FF0010101FA03F303F1FF331946C7
:103E60007B680B401343184607F12407BD4680BC0E
:103E7000704700BF80B582B000AF78607B681B7868
:103E8000DBB25BB21846FFF76FFF07F10807BD46CC
:103E900080BD00BF80B582B000AF4FF000037B60F3
:103EA0000DE041F6F003C2F200037A6853F82230C5
:103EB000184600F00BF87B6803F101037B607B6818
:103EC000002BEED007F10807BD4680BD90B583B04A
:103ED00000AF78607B681B78DCB2FFF735FF0146E6
:103EE0007B685B781A467B689B78084611461A46C1
:103EF000FFF784FF034662B210461946FFF750FFF2
:103F00007B68DB78012B02D17868FFF7B3FF07F1FC
:103F10000C07BD4690BD00BF80B400AF4CF6C8335F
:103F2000C0F600035B684FF000025A604CF6C833DD
:103F3000C0F600035A684CF6C833C0F600035B684D
:103F40001B6C23F0070313644CF6C833C0F6000360
:103F50005A684CF6C833C0F600035B681B6C43F02C
:103F6000040313644CF6C833C0F600035A684CF6D9
:103F7000C833C0F600035B681B6913614CF6D0338D
:103F8000C0F600035B684FF000025A604CF6D03375
:103F9000C0F600035A684CF6D033C0F600035B68E5
:103FA0005B6C23F0E06353644CF6D033C0F600033F
:103FB0005A684CF6D033C0F600035B685B6C43F084
:103FC000806353644CF6D033C0F600035A684CF655
:103FD000D033C0F600035B68DB69D3614CF6D8339D
:103FE000C0F600035B684FF000025A604CF6D8330D
:103FF000C0F600035A684CF6D833C0F600035B687D
:104000001B6C23F0700313644CF6D833C0F6000326
:104010005A684CF6D833C0F600035B681B6C43F05B
:10402000400313644CF6D833C0F600035A684CF6CC
:10403000D833C0F600035B681B6913614CF6E033AC
:10404000C0F600035B684FF000025A604CF6E033A4
:10405000C0F600035A684CF6E033C0F600035B6814
:104060005B6C23F0E04353644CF6E033C0F600038E
:104070005A684CF6E033C0F600035B685B6C43F0B3
:10408000804353644CF6E033C0F600035A684CF6A4
:10409000E033C0F600035B68DB69D361BD4680BCDA
:1040A000704700BF80B485B000AF78600B46FB70EE
:1040B0007B685B78FB73FB7B032B23D87B685B6897
:1040C0007A6852681169FA7B4FEAC20202F1030270
:1040D0004FF01F0000FA02F26FEA02020A401A6172
:1040E0007B685B687A6852681169FA7802F01F0091
:1040F000FA7B4FEAC20202F1030200FA02F20A431B
:104100001A6188E0FB7B032B2AD9FB7B072B27D87E
:10411000FB7BA3F10403FB737B685B687A685268DE
:104120005169FA7B4FEAC20202F103024FF01F000D
:1041300000FA02F26FEA02020A405A617B685B6889
:104140007A6852685169FA7802F01F00FA7B4FEAE8
:10415000C20202F1030200FA02F20A435A615AE073
:10416000FB7B072B2AD9FB7B0B2B27D8FB7BA3F1EF
:104170000803FB737B685B687A6852689169FA7B15
:104180004FEAC20202F103024FF01F0000FA02F2EE
:104190006FEA02020A409A617B685B687A6852683B
:1041A0009169FA7802F01F00FA7B4FEAC20202F12D
:1041B000030200FA02F20A439A612CE0FB7B0B2B0C
:1041C00029D9FB7B0F2B26D8FB7BA3F10C03FB73B8
:1041D0007B685B687A685268D169FA7B4FEAC202F1
:1041E00002F103024FF01F0000FA02F26FEA02022E
:1041F0000A40DA617B685B687A685268D169FA784C
:1042000002F01F00FA7B4FEAC20202F1030200FA39
:1042100002F20A43DA6107F11407BD4680BC704719
:1042200080B485B000AF78600B46FB707B685B782C
:10423000FB73FB7B032B23D87B685B687A6852682F
:104240001169FA7B4FEAC20202F103024FF01F002C
:1042500000FA02F26FEA02020A401A617B685B68A8
:104260007A6852681169FA7802F01F00FA7B4FEA07
:10427000C20202F1030200FA02F20A431A6188E064
:10428000FB7B032B2AD9FB7B072B27D8FB7BA3F1D6
:104290000403FB737B685B687A6852685169FA7B38
:1042A0004FEAC20202F103024FF01F0000FA02F2CD
:1042B0006FEA02020A405A617B685B687A6852685A
:1042C0005169FA7802F01F00FA7B4FEAC20202F14C
:1042D000030200FA02F20A435A615AE0FB7B072B01
:1042E0002AD9FB7B0B2B27D8FB7BA3F10803FB739D
:1042F0007B685B687A6852689169FA7B4FEAC20210
:1043000002F103024FF01F0000FA02F26FEA02020C
:104310000A409A617B685B687A6852689169FA78AA
:1043200002F01F00FA7B4FEAC20202F1030200FA18
:1043300002F20A439A612CE0FB7B0B2B29D9FB7B11
:104340000F2B26D8FB7BA3F10C03FB737B685B6808
:104350007A685268D169FA7B4FEAC20202F103021D
:104360004FF01F0000FA02F26FEA02020A40DA611F
:104370007B685B687A685268D169FA7802F01F003E
:10438000FA7B4FEAC20202F1030200FA02F20A4388
:10439000DA6107F11407BD4680BC704780B485B070
:1043A00000AF78607B6803F00703FB604FF46D4358
:1043B000CEF20003DB68BB60BA684FF6FF03134020
:1043C000BB60FB684FEA0322BB68134343F0BF6343
:1043D00043F40033BB604FF46D43CEF20003BA6880
:1043E000DA6007F11407BD4680BC704780B500AFA6
:1043F0004FF00100FFF7D2FF00F0FAF800F07EFB6B
:1044000000F096FDFFF788FDFFF744FDFEF7D4FCB2
:10441000FFF7CCF900F008F880BD00BF80B500AF11
:1044200000F06CFB80BD00BF80B487B000AF4FF4DC
:104430008643C4F601034FF48642C4F60102D268F3
:1044400022F0070242F00202DA6045F26043C4F64D
:10445000010345F26042C4F60102926822F00702AD
:1044600042F001029A604FF48643C4F601034FF410
:104470008642C4F60102126822F040021A604FF42C
:104480008643C4F601034FF48642C4F60102126863
:1044900022F001021A603B464FF000021A6003F15D
:1044A00004034FF000021A6003F104034FF000020E
:1044B0001A6003F104034FF000021A6003F10403D1
:1044C0004FF000021A6003F104034FF000021A607B
:1044D00003F104033A684FF00003C4F203031B6CBA
:1044E00003F00F0313433B604FF00003C4F20303D8
:1044F0004FF00002C4F20302126C22F00F021A64A1
:104500004FF00003C4F203034FF00002C4F20302B1
:10451000D26922F0070242F00302DA614FF0000391
:10452000C4F203034FF00002C4F20302D2F80821E0
:1045300022F0E06222F03F0242F0C062C3F808219C
:104540004FF00003C4F203033A6802F00F014FF08A
:104550000002C4F20302126C22F00F020A431A6432
:104560004FF40143C4F602034FF40142C4F60202C1
:10457000126942F080021A614FF40143C4F602034B
:104580004FF40142C4F60202126942F400421A6179
:104590004FF40143C4F602034FF40142C4F6020291
:1045A000926922F4384242F410429A614FF4014376
:1045B000C4F602034FF40142C4F60202D26922F0AB
:1045C000B80242F09002DA614FF40543C4F60203E8
:1045D0004FF40542C4F60202126922F4384242F452
:1045E00008421A6107F11C07BD4680BC704700BF36
:1045F00080B400AFBD4680BC704700BF80B485B0BA
:1046000000AF78604FF00003FB6007E000BF00BF21
:1046100000BF00BFFB6803F10103FB60FA687B6821
:104620009A42F3D307F11407BD4680BC704700BF20
:1046300080B483B000AF4FF001037B6044F210738D
:10464000C5F200035A684FF00203C0F201031340A1
:10465000002B02D04FF000037B607B68184607F107
:104660000C07BD4680BC704780B500AF4FF4844353
:10467000C5F200031B6803F00103002B0BD14FF4BC
:104680008443C5F200034FF48442C5F2000252682D
:1046900042F001025A604FF48843C5F200031B68E0
:1046A00003F40073002B0BD04FF48843C5F20003D2
:1046B0004FF48842C5F20002926842F400729A6098
:1046C00044F21073C5F2000344F21072C5F2000206
:1046D000526822F480125A604FF06400FFF78EFF98
:1046E00044F21073C5F2000344F21072C5F20002E6
:1046F000526842F400225A6080BD00BF80B582B08B
:1047000000AF4FF001037B6044F21073C5F2000369
:1047100044F21072C5F20002526822F4803222F094
:1047200002025A604FF48E43C5F200035B6803F047
:104730003003002B54D04FF48E43C5F200034FF4E6
:104740008E42C5F20002526822F030025A604FF4E5
:104750008E43C5F200034FF48E42C5F20002526848
:1047600042F440325A6044F21073C5F2000344F23E
:104770001072C5F20002D26822F00102DA6044F23F
:104780001073C5F2000344F21072C5F200025268C1
:1047900022F400325A6044F250633B604FF00A004A
:1047A000FFF72CFF3B6803F1FF333B6044F21073CB
:1047B000C5F200031B6803F46073B3F5607F02D099
:1047C0003B68002BEAD144F21073C5F200031B686A
:1047D00003F46073B3F5607F02D04FF000037B6099
:1047E0007B68184607F10807BD4680BD80B582B0DA
:1047F00000AF4FF001037B6044F21073C5F2000379
:104800001B6803F00403002B40F0978040F6300350
:10481000C2F200034FF46052C1F69C421A6040F6A7
:104820003003C2F200031A6849F68173C1F25E6375
:10483000A3FB02134FEA535303F1FF3240F6340354
:10484000C2F200031A6044F21073C5F2000344F28E
:104850001072C5F20002526842F001025A6044F23E
:104860001073C5F2000344F21072C5F200025268E0
:1048700042F010025A6044F21073C5F2000340F691
:104880003402C2F2000212684FEA024242F41C52A1
:104890009A6044F21073C5F2000344F21072C5F23C
:1048A0000002526842F040025A6044F21073C5F2AE
:1048B000000344F21072C5F20002526822F01002A6
:1048C0005A6044F21073C5F2000344F21072C5F24C
:1048D0000002526842F480225A6044F250633B6006
:1048E0004FF00A00FFF78AFE3B6803F1FF333B609D
:1048F00044F21073C5F200031B6803F00403002B9D
:1049000002D13B68002BEBD144F21073C5F20003D7
:104910001B6803F00403002B0CD044F21073C5F2A3
:10492000000344F21072C5F20002526822F0010244
:104930005A6002E04FF000037B607B68184607F185
:104940000807BD4680BD00BF80B582B000AF4FF004
:1049500001037B6044F21073C5F2000344F210724D
:10496000C5F20002526822F040025A6040F630035D
:10497000C2F200034FF46052C1F69C421A604FF03D
:104980006400FFF73BFE40F63003C2F200031B68F1
:104990004FEA132245F2C743C0F21E13A3FB0213D2
:1049A0004FEA932303F1FF3240F63403C2F20003CF
:1049B0001A6044F21073C5F2000340F63402C2F2EA
:1049C000000212684FEA024242F41C529A604FF011
:1049D0006400FFF713FE40F63003C2F200031B68C9
:1049E0004FEAD3124EF22F33C0F2BE03A3FB0213E1
:1049F0004FEAD32303F1FF3240F63403C2F200033F
:104A00001A6044F21073C5F2000340F63402C2F299
:104A1000000212684FEA024242F41C529A604FF0C0
:104A20009600FFF7EBFD44F21073C5F200034FF45C
:104A30001C52C0F203029A6044F21073C5F20003E4
:104A40009B6803F070634FEA1363002B1ED144F29E
:104A50001073C5F200039B6803F4FE434FEA13236F
:104A6000272B13D144F21073C5F200039B6803F0A7
:104A70007F03002B0AD144F21073C5F200039B6838
:104A800003F4FE034FEA1343032B02D04FF000035D
:104A90007B6044F26013C5F200034FF00502DA6058
:104AA0007B68184607F10807BD4680BD80B582B017
:104AB00000AF4FF001037B60FFF7D6FD4FF06400BD
:104AC000FFF79CFDFFF71AFE7860FFF78FFE786016
:104AD0004FF48C43C5F200034FF48C42C5F2000240
:104AE000D26842F48032DA60FFF72EFF78607B688C
:104AF000184607F10807BD4680BD00BF80B582B0EB
:104B000000AF4FF000037B60FFF792FD0346002BE0
:104B100005D1FFF7CBFF03467A6813437B60FDF7AF
:104B20004DF907F10807BD4680BD00BF80B400AF56
:104B30004FF000031846BD4680BC704780B500AFFB
:104B400040F63803C2F200031B78002B42D14FF02D
:104B50001000C1F20000FFF765F84FF48043C4F67F
:104B600001034FF48042C4F60102126822F00102F0
:104B70001A6000BF4FF48043C4F601031B6803F0C2
:104B80000203002BF6D14FF48043C4F601034FF427
:104B90008042C4F60102D26842F48042DA604FF4E7
:104BA0008043C4F601034FF48042C4F60102D26888
:104BB0006FEA92226FEA8222DA6040F63803C2F28C
:104BC00000031B7803F10103DAB240F63803C2F2A6
:104BD00000031A7080BD00BF80B483B000AF0246EE
:104BE0000B46FA71BB714FF48043C4F60103FA79A6
:104BF00002F101024FEA0261BA794FEA02420A4326
:104C000042F00202C3F8C42100BF4FF48043C4F64F
:104C10000103D3F8C43103F48073002BF5D107F1FD
:104C20000C07BD4680BC704780B485B000AF78608B
:104C30004FF00003FB604FF48043C4F60103D3F848
:104C40000031DBB2FB604FF48043C4F60103FA6825
:104C50004FEA02617A684FEA02420A4342F00402D4
:104C6000C3F8C42100BF4FF48043C4F60103D3F856
:104C7000C43103F48073002BF5D107F11407BD464E
:104C800080BC704780B485B000AF78600B46FB7085
:104C9000FB7803F1107303F528634FEA4313BB60FD
:104CA0004FF00003FB60BB684FF02002DA617B68C5
:104CB0001B7A002B25D17B681B684FEA83424FF09B
:104CC0000003C1F6FC73134043F00042BB689A61D5
:104CD0007B685B7A012B0DD17B685B684FEA83426E
:104CE0004FF00003C1F6FC73134043F00052BB6861
:104CF000DA601BE07B685B6823F06042BB68DA60C7
:104D000014E07B681B6823F0604343F02042BB68DB
:104D10009A617B685B7A4FEA437303F000527B68C9
:104D20005B6823F060431A43BB68DA607B681B7DD5
:104D3000012B77D17B689B7A4FEA036303F07062A3
:104D4000BB681B6823F070631A43BB681A604FF09E
:104D50000003FB6059E0FB68032B23D87A68FB68EB
:104D6000D31803F10803DB781A46FB684FEAC30344
:104D700002FA03F2FB684FEAC3034FF0FF0101FAA6
:104D800003F31A40BB681969FB684FEAC3034FF08D
:104D9000FF0000FA03F36FEA03030B401A43BB68FA
:104DA0001A612EE07A68FB68D31803F10803DB78F8
:104DB0001A46FB6803F10053A3F104034FEAC3034F
:104DC00002FA03F2FB6803F10053A3F104034FEA74
:104DD000C3034FF0FF0101FA03F31A40BB6859699E
:104DE000FB6803F10053A3F104034FEAC3034FF040
:104DF000FF0000FA03F36FEA03030B401A43BB689A
:104E00005A61FB6803F10103FB607B689B7A1A46D9
:104E1000FB689A429FD8BA684FF00003C0F60803B7
:104E2000D36103E0BB684FF40062DA61BB684FF006
:104E3000D462DA6107F11407BD4680BC704700BF39
:104E400080B586B000AF78604FF000037B614FF40F
:104E5000A043C4F601033B617B689B68FB6000BF15
:104E60004FF48043C4F60103D3F8C43103F48073D4
:104E7000002BF5D1FB681B6843F04102FB681A6008
:104E80007B681B794FEAC3327B68DB784FEA0333D8
:104E90001A437B689B784FEA03231A437B685B784D
:104EA0004FEA83131A437B681B781A43FB681A6125
:104EB0007B685B7B012B05D1FB68DB6843F4807268
:104EC000FB68DA604FF000037B6127E07B681A7BA8
:104ED0007B68997B7B69DBB2CB18DBB21046194645
:104EE000FFF77AFE7B689A7B7B69DBB2D318FB7293
:104EF000FB7A03F1107303F528634FEA43133B6118
:104F00007B681B7B4FEA43327B694FEA03231A43DA
:104F10003B699A607B6903F101037B617B68DB7B02
:104F20001A467B699A42D1D807F11807BD4680BD61
:104F300080B500AFFFF702FE4CF6E830C0F6000087
:104F4000FFF77EFF4CF6E830C0F6000041F6F401B2
:104F5000C2F200014FF0010200F0ACF84CF6E8306C
:104F6000C0F6000041F60C11C2F200014FF002023F
:104F700000F0A0F84CF6E833C0F600039B7B03F189
:104F800001034FEA431303F1904303F5A8331A4694
:104F90004CF6E833C0F600039B7B03F101034FEAB4
:104FA000431303F1904303F5A8331B6843F48033A4
:104FB000136080BD80B588B000AF78604FF000030B
:104FC000FB614FF00003BB614FF4A043C4F6010343
:104FD0007B617B689B683B617B68DB7B03F1FF3314
:104FE000FB6136E07B689A7BFB69DBB2D318FB730D
:104FF000FB7B03F1107303F528634FEA43137B61D6
:105000007B694FF000021A607B699B68DAB27B69AA
:105010009A607B696FF04042DA607B694FF0000272
:105020001A617B694FF000025A617B694FF0000200
:105030009A617B6940F6FF72DA617B689B7B1A4656
:10504000FB69D3181846FFF7EFFDFB6903F1FF3347
:10505000FB61FB69002BC5DA3B694FF041021A6026
:105060003B694FF000025A603B69DB6803F00F02B6
:105070003B69DA603B694FF4C0025A613B694FF00B
:1050800000029A613B694FF000021A617B681B7B4A
:105090001A4645F25003C1F20023D3184FEA8303A6
:1050A000BB61BB694FF000021A6007F12007BD46E3
:1050B00080BD00BF80B588B000AFF860B96013460E
:1050C000FB714FF00203FB61FB689A7BFB79D318FD
:1050D000DBB203F1FF33FB76FB7E03F1107303F5C4
:1050E00028634FEA43137B61BB681B7A002B03D014
:1050F000BB681B7A012B0FD1BB68DB7C012B03D073
:10510000BB68DB7C002B07D1BB681B7D002B07D065
:10511000BB681B7D012B03D04FF00603FB611AE037
:10512000BB68DB7C002B07D17B694FF02002DA6182
:105130004FF00003FB610EE0FB689A7BFB79D3180C
:10514000DBB203F1FF33DBB2B8681946FFF79AFD13
:105150004FF00003FB61FB69184607F12007BD46CD
:1051600080BD00BF80B487B000AF78600B46FB7095
:105170004FF005037B617B689A7BFB78D318DBB229
:1051800003F1FF33FB74FB7C03F1107303F5286319
:105190004FEA4313FB60FB68DB6903F400634FEAEB
:1051A000D323012B03D04FF001037B611EE0FB688A
:1051B000DB6903F020034FEA5313002B03D14FF0B8
:1051C00003037B6112E0FB68DB6903F480734FEA41
:1051D0001323012B03D14FF004037B6106E0FB682E
:1051E0004FF08072DA614FF000037B617B691846F3
:1051F00007F11C07BD4680BC704700BF80B487B074
:1052000000AF78600B46FB704FF000037B617B685A
:105210009A7BFB78D318DBB203F1FF33FB74FB7C82
:1052200003F1107303F528634FEA4313FB60FB6837
:10523000DB6903F400634FEAD323002B03D04FF064
:1052400001037B611EE0FB68DB6903F020034FEA8A
:105250005313002B03D14FF003037B6112E0FB6873
:10526000DB6903F480734FEA1323012B03D14FF062
:1052700004037B6106E0FB684FF08072DA614FF057
:1052800000037B617B69184607F11C07BD4680BCA3
:10529000704700BF80B489B000AFF860B9601346B2
:1052A000FB714FF00503FB614FF00003BB614FF052
:1052B0000003FB754FF00003BB75FB689A7BFB791D
:1052C000D318DBB203F1FF337B757B7D03F11073E1
:1052D00003F528634FEA43133B613B69DB6903F441
:1052E00000634FEAD323002B03D04FF00103FB618F
:1052F000CAE03B69DB6903F004034FEA9303012B27
:1053000003D14FF00403FB61BEE03B694FF008029C
:10531000DA613B699B6903F000534FEA5373002B3A
:105320002ED1BB684FF000021A723B699A694FF0A8
:105330000003C1F6FC7313404FEA9342BB681A6046
:105340003B69DB6803F000534FEA5373DAB2BB6882
:105350005A72BB685B7A012B0BD13B69DA684FF05C
:105360000003C1F6FC7313404FEA9342BB685A60D6
:105370001FE03B69DB6823F06042BB685A6018E0BD
:10538000BB684FF001021A723B699B6923F06042CF
:10539000BB681A603B69DB6823F06042BB685A60F7
:1053A0003B69DB6803F000534FEA5373DAB2BB6822
:1053B0005A723B691B6803F070634FEA1363DAB2F9
:1053C000BB689A724FF00003BB613BE0BB69032BE3
:1053D00016D83B691A69BB694FEAC3034FF0FF0156
:1053E00001FA03F31A40BB694FEAC30322FA03F33D
:1053F000DAB2B968BB69CB1803F10803DA701DE0B3
:105400003B695A69BB6903F10053A3F104034FEAF6
:10541000C3034FF0FF0101FA03F31A40BB6903F124
:105420000053A3F104034FEAC30322FA03F3DAB2F1
:10543000B968BB69CB1803F10803DA70BB6903F1E3
:105440000103BB61BB689B7A1A46BB699A42BDD80F
:105450003B69DB6903F004034FEA9303FB753B6987
:10546000DB6903F008034FEAD303BB75FB7D002B18
:1054700003D0BB7D002B7FF448AFBB684FF0000228
:105480001A754FF00003FB61FB69184607F124070A
:10549000BD4680BC704700BF80B489B000AFF860E3
:1054A0007B600B46FB721346BB724FF00503FB613A
:1054B0004FF00003BB61FB689A7BFB7AD318DBB229
:1054C00003F1FF33FB75FB7D03F1107303F52863D4
:1054D0004FEA43133B61BB7A082B03D94FF0060315
:1054E000FB6182E03B69DB6903F400634FEAD3238D
:1054F000012B03D04FF00103FB6176E03B694FF0D5
:105500002002DA61BB7A4FEA036303F070623B6901
:105510001B6823F070631A433B691A604FF0000365
:10552000BB6155E0BB69032B21D87A68BB69D318EE
:105530001B781A46BB694FEAC30302FA03F2BB6940
:105540004FEAC3034FF0FF0101FA03F31A403B692E
:105550001969BB694FEAC3034FF0FF0000FA03F378
:105560006FEA03030B401A433B691A612CE07A6827
:10557000BB69D3181B781A46BB6903F10053A3F12A
:1055800004034FEAC30302FA03F2BB6903F10053B9
:10559000A3F104034FEAC3034FF0FF0101FA03F341
:1055A0001A403B695969BB6903F10053A3F1040335
:1055B0004FEAC3034FF0FF0000FA03F36FEA03035F
:1055C0000B401A433B695A61BB6903F10103BB619C
:1055D000BA7ABB699A42A5D83A694FF04003C0F243
:1055E000A863D3614FF00003FB61FB69184607F124
:1055F0002407BD4680BC704780B487B000AF786098
:1056000013460A46FA70BB704FF005037B617B6856
:105610009A7BFB78D318DBB203F1FF33FB74FB7C7E
:1056200003F1107303F528634FEA4313FB60FB6833
:10563000DA69BB781340002B03D04FF001037B6184
:1056400002E04FF000037B617B69184607F11C07FD
:10565000BD4680BC704700BF80B485B000AF7860A5
:105660000B467B804FF00503FB607B689B68BB604B
:10567000BB685A687B881340002B03D04FF00103AE
:10568000FB6002E04FF00003FB60FB68184607F187
:105690001407BD4680BC704780B485B000AF786009
:1056A0000B46FB704FF00503FB607B681B7B1A46C3
:1056B00045F25003C1F20023D3184FEA8303BB60C5
:1056C000BB681A68FB7803F1FF334FF0FF3101FA32
:1056D00003F31A40FB7803F1FF3322FA03F3FB6074
:1056E000FB68184607F11407BD4680BC704700BF31
:1056F00080B487B000AF786013460A46FA70BB707A
:105700004FF005037B617B689A7BFB78D318DBB293
:1057100003F1FF33FB74FB7C03F1107303F5286383
:105720004FEA4313FB60FB78002B04D07B68DB7BE4
:10573000FA789A4203D94FF002037B6107E0BB7805
:1057400003F01B02FB68DA614FF000037B617B69A9
:10575000184607F11C07BD4680BC704780B485B071
:1057600000AF78600B467B807B689B68FB60FB68C2
:105770005A687B8803F478736FEA03031A40FB6866
:105780005A6007F11407BD4680BC704780B485B0ED
:1057900000AF78600B46FB704FF00503FB604FF0E5
:1057A0000003BB60FB78002B04D07B68DB7BFA78BE
:1057B0009A4203D94FF00203FB601BE07B681B7B1E
:1057C0001A4645F25003C1F20023D3184FEA83036F
:1057D000BB60BB681A68FB7803F1FF334FF001012F
:1057E00001FA03F36FEA03031A40BB681A604FF033
:1057F0000003FB60FB68184607F11407BD4680BC38
:10580000704700BF81F0004102E000BF83F0004319
:1058100030B54FEA41044FEA430594EA050F08BF4B
:1058200090EA020F1FBF54EA000C55EA020C7FEA0F
:10583000645C7FEA655C00F0E2804FEA5454D4EB8C
:105840005555B8BF6D420CDD2C4480EA020281EA56
:10585000030382EA000083EA010180EA020281EA8E
:105860000303362D88BF30BD11F0004F4FEA0131E0
:105870004FF4801C4CEA113102D0404261EB4101EF
:1058800013F0004F4FEA03334CEA133302D0524275
:1058900063EB430394EA050F00F0A780A4F1010431
:1058A000D5F1200E0DDB02FA0EFC22FA05F280186B
:1058B00041F1000103FA0EF2801843FA05F3594151
:1058C0000EE0A5F120050EF1200E012A03FA0EFCD0
:1058D00028BF4CF0020C43FA05F3C01851EBE371FA
:1058E00001F0004507D54FF0000EDCF1000C7EEB17
:1058F00000006EEB0101B1F5801F1BD3B1F5001F55
:105900000CD349085FEA30004FEA3C0C04F1010473
:105910004FEA445212F5800F80F09A80BCF1004F9C
:1059200008BF5FEA500C50F1000041EB045141EA1E
:10593000050130BD5FEA4C0C404141EB010111F41F
:10594000801FA4F10104E9D191F0000F04BF0146CA
:105950000020B1FA81F308BF2033A3F10B03B3F1A8
:1059600020020CDA0C3208DD02F1140CC2F10C0238
:1059700001FA0CF021FA02F10CE002F11402D8BF96
:10598000C2F1200C01FA02F120FA0CFCDCBF41EA62
:105990000C019040E41AA2BF01EB0451294330BD31
:1059A0006FEA04041F3C1CDA0C340EDC04F114040E
:1059B000C4F1200220FA04F001FA02F340EA0300E5
:1059C00021FA04F345EA030130BDC4F10C04C4F12B
:1059D000200220FA02F001FA04F340EA030029460B
:1059E00030BD21FA04F0294630BD94F0000F83F455
:1059F000801306BF81F480110134013D4EE77FEA38
:105A0000645C18BF7FEA655C29D094EA050F08BF83
:105A100090EA020F05D054EA000C04BF1946104664
:105A200030BD91EA030F1EBF0021002030BD5FEAA8
:105A3000545C05D14000494128BF41F0004130BDD0
:105A400014F580043CBF01F5801130BD01F0004524
:105A500045F0FE4141F470014FF0000030BD7FEA97
:105A6000645C1ABF194610467FEA655C1CBF0B4692
:105A7000024650EA013406BF52EA033591EA030FA9
:105A800041F4002130BD00BF90F0000F04BF0021A1
:105A9000704730B54FF4806404F132044FF00005D4
:105AA0004FF0000150E700BF90F0000F04BF00214D
:105AB000704730B54FF4806404F1320410F00045B3
:105AC00048BF40424FF000013EE700BF42004FEAAE
:105AD000E2014FEA31014FEA02701FBF12F07F432B
